{
  "_format": "hh-sol-artifact-1",
  "contractName": "MusicCrowdfunding",
  "sourceName": "contracts/MusicCrowdfunding.sol",
  "abi": [
    {
      "inputs": [
        {
          "internalType": "address",
          "name": "_tokenAddress",
          "type": "address"
        }
      ],
      "stateMutability": "nonpayable",
      "type": "constructor"
    },
    {
      "inputs": [
        {
          "internalType": "address",
          "name": "owner",
          "type": "address"
        }
      ],
      "name": "OwnableInvalidOwner",
      "type": "error"
    },
    {
      "inputs": [
        {
          "internalType": "address",
          "name": "account",
          "type": "address"
        }
      ],
      "name": "OwnableUnauthorizedAccount",
      "type": "error"
    },
    {
      "anonymous": false,
      "inputs": [
        {
          "indexed": true,
          "internalType": "uint256",
          "name": "campaignId",
          "type": "uint256"
        },
        {
          "indexed": true,
          "internalType": "address",
          "name": "musician",
          "type": "address"
        },
        {
          "indexed": false,
          "internalType": "string",
          "name": "title",
          "type": "string"
        },
        {
          "indexed": false,
          "internalType": "string",
          "name": "description",
          "type": "string"
        },
        {
          "indexed": false,
          "internalType": "string",
          "name": "url",
          "type": "string"
        },
        {
          "indexed": false,
          "internalType": "uint256",
          "name": "goal",
          "type": "uint256"
        },
        {
          "indexed": false,
          "internalType": "uint256",
          "name": "deadline",
          "type": "uint256"
        }
      ],
      "name": "CampaignCreated",
      "type": "event"
    },
    {
      "anonymous": false,
      "inputs": [
        {
          "indexed": true,
          "internalType": "uint256",
          "name": "campaignId",
          "type": "uint256"
        },
        {
          "indexed": true,
          "internalType": "address",
          "name": "backer",
          "type": "address"
        },
        {
          "indexed": false,
          "internalType": "uint256",
          "name": "amount",
          "type": "uint256"
        }
      ],
      "name": "CampaignFunded",
      "type": "event"
    },
    {
      "anonymous": false,
      "inputs": [
        {
          "indexed": true,
          "internalType": "uint256",
          "name": "campaignId",
          "type": "uint256"
        },
        {
          "indexed": true,
          "internalType": "address",
          "name": "musician",
          "type": "address"
        },
        {
          "indexed": false,
          "internalType": "uint256",
          "name": "amount",
          "type": "uint256"
        }
      ],
      "name": "FundsReleased",
      "type": "event"
    },
    {
      "anonymous": false,
      "inputs": [
        {
          "indexed": true,
          "internalType": "address",
          "name": "previousOwner",
          "type": "address"
        },
        {
          "indexed": true,
          "internalType": "address",
          "name": "newOwner",
          "type": "address"
        }
      ],
      "name": "OwnershipTransferred",
      "type": "event"
    },
    {
      "inputs": [],
      "name": "activeCampaignCount",
      "outputs": [
        {
          "internalType": "uint256",
          "name": "",
          "type": "uint256"
        }
      ],
      "stateMutability": "view",
      "type": "function"
    },
    {
      "inputs": [],
      "name": "campaignCount",
      "outputs": [
        {
          "internalType": "uint256",
          "name": "",
          "type": "uint256"
        }
      ],
      "stateMutability": "view",
      "type": "function"
    },
    {
      "inputs": [
        {
          "internalType": "uint256",
          "name": "",
          "type": "uint256"
        }
      ],
      "name": "campaignSocialLinks",
      "outputs": [
        {
          "internalType": "string",
          "name": "facebook",
          "type": "string"
        },
        {
          "internalType": "string",
          "name": "instagram",
          "type": "string"
        },
        {
          "internalType": "string",
          "name": "tiktok",
          "type": "string"
        },
        {
          "internalType": "string",
          "name": "youtube",
          "type": "string"
        },
        {
          "internalType": "string",
          "name": "twitter",
          "type": "string"
        },
        {
          "internalType": "string",
          "name": "github",
          "type": "string"
        }
      ],
      "stateMutability": "view",
      "type": "function"
    },
    {
      "inputs": [
        {
          "internalType": "uint256",
          "name": "",
          "type": "uint256"
        }
      ],
      "name": "campaigns",
      "outputs": [
        {
          "internalType": "uint256",
          "name": "id",
          "type": "uint256"
        },
        {
          "internalType": "address",
          "name": "musician",
          "type": "address"
        },
        {
          "internalType": "string",
          "name": "title",
          "type": "string"
        },
        {
          "internalType": "string",
          "name": "description",
          "type": "string"
        },
        {
          "internalType": "string",
          "name": "url",
          "type": "string"
        },
        {
          "internalType": "uint256",
          "name": "goal",
          "type": "uint256"
        },
        {
          "internalType": "uint256",
          "name": "raised",
          "type": "uint256"
        },
        {
          "internalType": "uint256",
          "name": "deadline",
          "type": "uint256"
        },
        {
          "internalType": "bool",
          "name": "closed",
          "type": "bool"
        }
      ],
      "stateMutability": "view",
      "type": "function"
    },
    {
      "inputs": [
        {
          "internalType": "uint256",
          "name": "_campaignId",
          "type": "uint256"
        }
      ],
      "name": "closeCampaign",
      "outputs": [],
      "stateMutability": "nonpayable",
      "type": "function"
    },
    {
      "inputs": [
        {
          "internalType": "string",
          "name": "_title",
          "type": "string"
        },
        {
          "internalType": "string",
          "name": "_description",
          "type": "string"
        },
        {
          "internalType": "string",
          "name": "_url",
          "type": "string"
        },
        {
          "internalType": "uint256",
          "name": "_goal",
          "type": "uint256"
        },
        {
          "internalType": "uint256",
          "name": "_durationInDays",
          "type": "uint256"
        }
      ],
      "name": "createCampaign",
      "outputs": [],
      "stateMutability": "nonpayable",
      "type": "function"
    },
    {
      "inputs": [
        {
          "internalType": "uint256",
          "name": "_campaignId",
          "type": "uint256"
        },
        {
          "internalType": "uint256",
          "name": "_amount",
          "type": "uint256"
        }
      ],
      "name": "fundCampaign",
      "outputs": [],
      "stateMutability": "payable",
      "type": "function"
    },
    {
      "inputs": [
        {
          "internalType": "uint256",
          "name": "_campaignId",
          "type": "uint256"
        }
      ],
      "name": "getCampaignDetails",
      "outputs": [
        {
          "internalType": "uint256",
          "name": "id",
          "type": "uint256"
        },
        {
          "internalType": "address",
          "name": "musician",
          "type": "address"
        },
        {
          "internalType": "string",
          "name": "title",
          "type": "string"
        },
        {
          "internalType": "string",
          "name": "description",
          "type": "string"
        },
        {
          "internalType": "string",
          "name": "url",
          "type": "string"
        },
        {
          "internalType": "uint256",
          "name": "goal",
          "type": "uint256"
        },
        {
          "internalType": "uint256",
          "name": "raised",
          "type": "uint256"
        },
        {
          "internalType": "uint256",
          "name": "deadline",
          "type": "uint256"
        },
        {
          "internalType": "bool",
          "name": "closed",
          "type": "bool"
        }
      ],
      "stateMutability": "view",
      "type": "function"
    },
    {
      "inputs": [
        {
          "internalType": "uint256",
          "name": "_campaignId",
          "type": "uint256"
        }
      ],
      "name": "getSocialLinks",
      "outputs": [
        {
          "internalType": "string",
          "name": "facebook",
          "type": "string"
        },
        {
          "internalType": "string",
          "name": "instagram",
          "type": "string"
        },
        {
          "internalType": "string",
          "name": "tiktok",
          "type": "string"
        },
        {
          "internalType": "string",
          "name": "youtube",
          "type": "string"
        },
        {
          "internalType": "string",
          "name": "twitter",
          "type": "string"
        },
        {
          "internalType": "string",
          "name": "github",
          "type": "string"
        }
      ],
      "stateMutability": "view",
      "type": "function"
    },
    {
      "inputs": [],
      "name": "owner",
      "outputs": [
        {
          "internalType": "address",
          "name": "",
          "type": "address"
        }
      ],
      "stateMutability": "view",
      "type": "function"
    },
    {
      "inputs": [],
      "name": "renounceOwnership",
      "outputs": [],
      "stateMutability": "nonpayable",
      "type": "function"
    },
    {
      "inputs": [],
      "name": "token",
      "outputs": [
        {
          "internalType": "contract IERC20",
          "name": "",
          "type": "address"
        }
      ],
      "stateMutability": "view",
      "type": "function"
    },
    {
      "inputs": [
        {
          "internalType": "address",
          "name": "newOwner",
          "type": "address"
        }
      ],
      "name": "transferOwnership",
      "outputs": [],
      "stateMutability": "nonpayable",
      "type": "function"
    },
    {
      "inputs": [
        {
          "internalType": "uint256",
          "name": "_campaignId",
          "type": "uint256"
        },
        {
          "internalType": "string",
          "name": "_newFacebook",
          "type": "string"
        },
        {
          "internalType": "string",
          "name": "_newInstagram",
          "type": "string"
        },
        {
          "internalType": "string",
          "name": "_newTiktok",
          "type": "string"
        },
        {
          "internalType": "string",
          "name": "_newYoutube",
          "type": "string"
        },
        {
          "internalType": "string",
          "name": "_newTwitter",
          "type": "string"
        },
        {
          "internalType": "string",
          "name": "_newGithub",
          "type": "string"
        }
      ],
      "name": "updateSocialLinks",
      "outputs": [],
      "stateMutability": "nonpayable",
      "type": "function"
    }
  ],
  "bytecode": "0x60806040523480156200001157600080fd5b5060405162001d5138038062001d518339810160408190526200003491620000dd565b33806200005b57604051631e4fbdf760e01b81526000600482015260240160405180910390fd5b62000066816200008d565b50600180546001600160a01b0319166001600160a01b03929092169190911790556200010f565b600080546001600160a01b038381166001600160a01b0319831681178455604051919092169283917f8be0079c531659141344cd1fd0a4f28419497f9722a3daafe3b4186f6b6457e09190a35050565b600060208284031215620000f057600080fd5b81516001600160a01b03811681146200010857600080fd5b9392505050565b611c32806200011f6000396000f3fe6080604052600436106100dd5760003560e01c8063918eab151161007f578063d738a61011610059578063d738a61014610248578063d993de6214610268578063f2fde38b14610288578063fc0c546a146102a857600080fd5b8063918eab15146101f5578063980f2e6614610208578063b0e1c1e11461022857600080fd5b80636cb0b50e116100bb5780636cb0b50e14610172578063715018a6146101965780637274e30d146101ad5780638da5cb5b146101c357600080fd5b8063141961bc146100e2578063496a6050146101205780634d6b42fd14610152575b600080fd5b3480156100ee57600080fd5b506101026100fd3660046115de565b6102c8565b6040516101179998979695949392919061163d565b60405180910390f35b34801561012c57600080fd5b5061014061013b3660046115de565b6104b6565b604051610117969594939291906116bc565b34801561015e57600080fd5b5061014061016d3660046115de565b61081a565b34801561017e57600080fd5b5061018860055481565b604051908152602001610117565b3480156101a257600080fd5b506101ab610bb0565b005b3480156101b957600080fd5b5061018860045481565b3480156101cf57600080fd5b506000546001600160a01b03165b6040516001600160a01b039091168152602001610117565b6101ab61020336600461173e565b610bc4565b34801561021457600080fd5b506101ab610223366004611803565b610db0565b34801561023457600080fd5b506101ab6102433660046115de565b610feb565b34801561025457600080fd5b506101ab61026336600461189d565b6111bf565b34801561027457600080fd5b506101026102833660046115de565b6112f0565b34801561029457600080fd5b506101ab6102a336600461199d565b611523565b3480156102b457600080fd5b506001546101dd906001600160a01b031681565b600260208190526000918252604090912080546001820154928201805491936001600160a01b031692916102fb906119cd565b80601f0160208091040260200160405190810160405280929190818152602001828054610327906119cd565b80156103745780601f1061034957610100808354040283529160200191610374565b820191906000526020600020905b81548152906001019060200180831161035757829003601f168201915b505050505090806003018054610389906119cd565b80601f01602080910402602001604051908101604052809291908181526020018280546103b5906119cd565b80156104025780601f106103d757610100808354040283529160200191610402565b820191906000526020600020905b8154815290600101906020018083116103e557829003601f168201915b505050505090806004018054610417906119cd565b80601f0160208091040260200160405190810160405280929190818152602001828054610443906119cd565b80156104905780601f1061046557610100808354040283529160200191610490565b820191906000526020600020905b81548152906001019060200180831161047357829003601f168201915b505050506005830154600684015460078501546008909501549394919390925060ff1689565b6003602052600090815260409020805481906104d1906119cd565b80601f01602080910402602001604051908101604052809291908181526020018280546104fd906119cd565b801561054a5780601f1061051f5761010080835404028352916020019161054a565b820191906000526020600020905b81548152906001019060200180831161052d57829003601f168201915b50505050509080600101805461055f906119cd565b80601f016020809104026020016040519081016040528092919081815260200182805461058b906119cd565b80156105d85780601f106105ad576101008083540402835291602001916105d8565b820191906000526020600020905b8154815290600101906020018083116105bb57829003601f168201915b5050505050908060020180546105ed906119cd565b80601f0160208091040260200160405190810160405280929190818152602001828054610619906119cd565b80156106665780601f1061063b57610100808354040283529160200191610666565b820191906000526020600020905b81548152906001019060200180831161064957829003601f168201915b50505050509080600301805461067b906119cd565b80601f01602080910402602001604051908101604052809291908181526020018280546106a7906119cd565b80156106f45780601f106106c9576101008083540402835291602001916106f4565b820191906000526020600020905b8154815290600101906020018083116106d757829003601f168201915b505050505090806004018054610709906119cd565b80601f0160208091040260200160405190810160405280929190818152602001828054610735906119cd565b80156107825780601f1061075757610100808354040283529160200191610782565b820191906000526020600020905b81548152906001019060200180831161076557829003601f168201915b505050505090806005018054610797906119cd565b80601f01602080910402602001604051908101604052809291908181526020018280546107c3906119cd565b80156108105780601f106107e557610100808354040283529160200191610810565b820191906000526020600020905b8154815290600101906020018083116107f357829003601f168201915b5050505050905086565b606080606080606080600060036000898152602001908152602001600020905080600001816001018260020183600301846004018560050185805461085e906119cd565b80601f016020809104026020016040519081016040528092919081815260200182805461088a906119cd565b80156108d75780601f106108ac576101008083540402835291602001916108d7565b820191906000526020600020905b8154815290600101906020018083116108ba57829003601f168201915b505050505095508480546108ea906119cd565b80601f0160208091040260200160405190810160405280929190818152602001828054610916906119cd565b80156109635780601f1061093857610100808354040283529160200191610963565b820191906000526020600020905b81548152906001019060200180831161094657829003601f168201915b50505050509450838054610976906119cd565b80601f01602080910402602001604051908101604052809291908181526020018280546109a2906119cd565b80156109ef5780601f106109c4576101008083540402835291602001916109ef565b820191906000526020600020905b8154815290600101906020018083116109d257829003601f168201915b50505050509350828054610a02906119cd565b80601f0160208091040260200160405190810160405280929190818152602001828054610a2e906119cd565b8015610a7b5780601f10610a5057610100808354040283529160200191610a7b565b820191906000526020600020905b815481529060010190602001808311610a5e57829003601f168201915b50505050509250818054610a8e906119cd565b80601f0160208091040260200160405190810160405280929190818152602001828054610aba906119cd565b8015610b075780601f10610adc57610100808354040283529160200191610b07565b820191906000526020600020905b815481529060010190602001808311610aea57829003601f168201915b50505050509150808054610b1a906119cd565b80601f0160208091040260200160405190810160405280929190818152602001828054610b46906119cd565b8015610b935780601f10610b6857610100808354040283529160200191610b93565b820191906000526020600020905b815481529060010190602001808311610b7657829003601f168201915b505050505090509650965096509650965096505091939550919395565b610bb8611561565b610bc2600061158e565b565b600082815260026020526040902060080154829060ff1615610c225760405162461bcd60e51b815260206004820152601260248201527110d85b5c185a59db881a5cc818db1bdcd95960721b60448201526064015b60405180910390fd5b6000818152600260205260409020600701544210610c825760405162461bcd60e51b815260206004820152601960248201527f43616d706169676e20646561646c696e652072656163686564000000000000006044820152606401610c19565b60008211610cd25760405162461bcd60e51b815260206004820181905260248201527f416d6f756e74206d7573742062652067726561746572207468616e207a65726f6044820152606401610c19565b6001546040516323b872dd60e01b8152336004820152306024820152604481018490526001600160a01b03909116906323b872dd906064016020604051808303816000875af1158015610d29573d6000803e3d6000fd5b505050506040513d601f19601f82011682018060405250810190610d4d9190611a07565b5060008381526002602052604081206006018054849290610d6f908490611a3f565b9091555050604051828152339084907f8a488dc8cd2ade9e472d438b05d4ca99d4b6eb64c602e26a33888999bcdc7df39060200160405180910390a3505050565b60008211610e005760405162461bcd60e51b815260206004820152601e60248201527f476f616c206d7573742062652067726561746572207468616e207a65726f00006044820152606401610c19565b60008111610e5b5760405162461bcd60e51b815260206004820152602260248201527f4475726174696f6e206d7573742062652067726561746572207468616e207a65604482015261726f60f01b6064820152608401610c19565b6000610e6a8262015180611a58565b90506000610e788242611a3f565b600480549192506000610e8a83611a6f565b909155505060058054906000610e9f83611a6f565b909155505060408051610120810182526004548082523360208084019182528385018c8152606085018c9052608085018b905260a085018a9052600060c0860181905260e086018890526101008601819052938452600291829052949092208351815590516001820180546001600160a01b0319166001600160a01b03909216919091179055925191929190820190610f389082611ad7565b5060608201516003820190610f4d9082611ad7565b5060808201516004820190610f629082611ad7565b5060a0820151600582015560c0820151600682015560e08201516007820155610100909101516008909101805460ff19169115159190911790556004546040513391907f2cb04f56996beb67c0ab27012deb0e8e96941f5daf9c0e52abab9055849c1af590610fda908b908b908b908b908990611b97565b60405180910390a350505050505050565b60008181526002602052604090206001015481906001600160a01b031633146110565760405162461bcd60e51b815260206004820152601a60248201527f43616c6c6572206973206e6f7420746865206d7573696369616e0000000000006044820152606401610c19565b6000828152600260205260409020600881015460ff16156110b95760405162461bcd60e51b815260206004820152601a60248201527f43616d706169676e20697320616c726561647920636c6f7365640000000000006044820152606401610c19565b8060050154816006015410611196576001805490820154600683015460405163a9059cbb60e01b81526001600160a01b039283166004820152602481019190915291169063a9059cbb906044016020604051808303816000875af1158015611125573d6000803e3d6000fd5b505050506040513d601f19601f820116820180604052508101906111499190611a07565b50600181015460068201546040519081526001600160a01b039091169084907f6e3c6096795c8298a218b2cfb8bde42726ff7c9a3d27b4d3ba41ab7f74feb5fb9060200160405180910390a35b60088101805460ff19166001179055600580549060006111b583611be5565b9190505550505050565b60008781526002602052604090206001015487906001600160a01b0316331461122a5760405162461bcd60e51b815260206004820152601a60248201527f43616c6c6572206973206e6f7420746865206d7573696369616e0000000000006044820152606401610c19565b6040805160c0810182528881526020808201899052818301889052606082018790526080820186905260a0820185905260008b8152600390915291909120815182919081906112799082611ad7565b506020820151600182019061128e9082611ad7565b50604082015160028201906112a39082611ad7565b50606082015160038201906112b89082611ad7565b50608082015160048201906112cd9082611ad7565b5060a082015160058201906112e29082611ad7565b505050505050505050505050565b60008060608060606000806000806000600260008c8152602001908152602001600020905080600001548160010160009054906101000a90046001600160a01b03168260020183600301846004018560050154866006015487600701548860080160009054906101000a900460ff1686805461136b906119cd565b80601f0160208091040260200160405190810160405280929190818152602001828054611397906119cd565b80156113e45780601f106113b9576101008083540402835291602001916113e4565b820191906000526020600020905b8154815290600101906020018083116113c757829003601f168201915b505050505096508580546113f7906119cd565b80601f0160208091040260200160405190810160405280929190818152602001828054611423906119cd565b80156114705780601f1061144557610100808354040283529160200191611470565b820191906000526020600020905b81548152906001019060200180831161145357829003601f168201915b50505050509550848054611483906119cd565b80601f01602080910402602001604051908101604052809291908181526020018280546114af906119cd565b80156114fc5780601f106114d1576101008083540402835291602001916114fc565b820191906000526020600020905b8154815290600101906020018083116114df57829003601f168201915b50505050509450995099509950995099509950995099509950509193959799909294969850565b61152b611561565b6001600160a01b03811661155557604051631e4fbdf760e01b815260006004820152602401610c19565b61155e8161158e565b50565b6000546001600160a01b03163314610bc25760405163118cdaa760e01b8152336004820152602401610c19565b600080546001600160a01b038381166001600160a01b0319831681178455604051919092169283917f8be0079c531659141344cd1fd0a4f28419497f9722a3daafe3b4186f6b6457e09190a35050565b6000602082840312156115f057600080fd5b5035919050565b6000815180845260005b8181101561161d57602081850181015186830182015201611601565b506000602082860101526020601f19601f83011685010191505092915050565b8981526001600160a01b0389166020820152610120604082018190526000906116688382018b6115f7565b9050828103606084015261167c818a6115f7565b9050828103608084015261169081896115f7565b9150508560a08301528460c08301528360e08301528215156101008301529a9950505050505050505050565b60c0815260006116cf60c08301896115f7565b82810360208401526116e181896115f7565b905082810360408401526116f581886115f7565b9050828103606084015261170981876115f7565b9050828103608084015261171d81866115f7565b905082810360a084015261173181856115f7565b9998505050505050505050565b6000806040838503121561175157600080fd5b50508035926020909101359150565b634e487b7160e01b600052604160045260246000fd5b600082601f83011261178757600080fd5b813567ffffffffffffffff808211156117a2576117a2611760565b604051601f8301601f19908116603f011681019082821181831017156117ca576117ca611760565b816040528381528660208588010111156117e357600080fd5b836020870160208301376000602085830101528094505050505092915050565b600080600080600060a0868803121561181b57600080fd5b853567ffffffffffffffff8082111561183357600080fd5b61183f89838a01611776565b9650602088013591508082111561185557600080fd5b61186189838a01611776565b9550604088013591508082111561187757600080fd5b5061188488828901611776565b9598949750949560608101359550608001359392505050565b600080600080600080600060e0888a0312156118b857600080fd5b87359650602088013567ffffffffffffffff808211156118d757600080fd5b6118e38b838c01611776565b975060408a01359150808211156118f957600080fd5b6119058b838c01611776565b965060608a013591508082111561191b57600080fd5b6119278b838c01611776565b955060808a013591508082111561193d57600080fd5b6119498b838c01611776565b945060a08a013591508082111561195f57600080fd5b61196b8b838c01611776565b935060c08a013591508082111561198157600080fd5b5061198e8a828b01611776565b91505092959891949750929550565b6000602082840312156119af57600080fd5b81356001600160a01b03811681146119c657600080fd5b9392505050565b600181811c908216806119e157607f821691505b602082108103611a0157634e487b7160e01b600052602260045260246000fd5b50919050565b600060208284031215611a1957600080fd5b815180151581146119c657600080fd5b634e487b7160e01b600052601160045260246000fd5b80820180821115611a5257611a52611a29565b92915050565b8082028115828204841417611a5257611a52611a29565b600060018201611a8157611a81611a29565b5060010190565b601f821115611ad257600081815260208120601f850160051c81016020861015611aaf5750805b601f850160051c820191505b81811015611ace57828155600101611abb565b5050505b505050565b815167ffffffffffffffff811115611af157611af1611760565b611b0581611aff84546119cd565b84611a88565b602080601f831160018114611b3a5760008415611b225750858301515b600019600386901b1c1916600185901b178555611ace565b600085815260208120601f198616915b82811015611b6957888601518255948401946001909101908401611b4a565b5085821015611b875787850151600019600388901b60f8161c191681555b5050505050600190811b01905550565b60a081526000611baa60a08301886115f7565b8281036020840152611bbc81886115f7565b90508281036040840152611bd081876115f7565b60608401959095525050608001529392505050565b600081611bf457611bf4611a29565b50600019019056fea2646970667358221220073fc75087a2dc101f5742e961fd7ddc9b30c7d92131503259cb5f66da1a3cbb64736f6c63430008140033",
  "linkReferences": {},
  "deployedLinkReferences": {}
}